S0110000554152545F544553542E7372656338
S113000071C0000081C000007FC000007DC00000FE
S11300107BC0000079C0000077C0000075C00000FC
S113002073C0000071C000006FC000006DC000000C
S11300306BC0000069C0000067C0000065C000001C
S113004063C0000061C000005FC000005DC000002C
S11300505BC0000059C0000057C0000055C000003C
S113006053C0000079C00000A9C000004DC00000CA
S11300704BC0000049C0000047C0000045C000005C
S113008043C0000041C000003FC000003DC000006C
S1130090C3C00000F3C0000037C0000035C000003A
S11300A033C0000031C000002FC000002DC000008C
S11300B02BC0000029C0000027C0000025C000009C
S11300C023C0000021C000001FC000001DC00000AC
S11300D01BC0000019C0000017C0000015C00000BC
S11300E013C0000011241FBECFEFD1E2DEBFCDBF8D
S11300F000E00CBF22E0A0E0B2E001C01D92AA38EB
S1130100B207E1F715D0E8C07BCF9093C500809388
S1130110C40088E18093C10086E08093C200089502
S1130120E0ECF0E0908195FFFDCF8093C600089548
S11301308CE090E0EADF88E4F3DF85E4F1DF8CE42F
S1130140EFDF8CE4EDDF8FE4EBDF81E2E9DF8DE0CC
S1130150E7DF8AE0E5DFEFCF1F920F920FB60F9231
S113016011240BB60F922F938F939F93EF93FF93CA
S11301708091C0002091C6008C71E0914702EF5F2E
S1130180EF7190914602E91739F0E0934702F0E0ED
S1130190E65BFD4F208301C082E090914502892BEC
S11301A080934502FF91EF919F918F912F910F9032
S11301B00BBE0F900FBE0F901F9018951F920F92B9
S11301C00FB60F9211240BB60F928F939F93EF9358
S11301D0FF939091490280914802981769F0E09149
S11301E04802EF5FEF71E0934802F0E0E659FD4FFB
S11301F080818093C60005C0E1ECF0E080818F7DB2
S11302008083FF91EF919F918F910F900BBE0F9080
S11302100FBE0F901F9018951F920F920FB60F925A
S113022011240BB60F922F938F939F93EF93FF9309
S11302308091C8002091CE008C71E0910202EF5FA2
S1130240EF7190910102E91739F0E0930202F0E0B6
S1130250EB5FFD4F208301C082E090910002892B67
S113026080930002FF91EF919F918F912F910F90B6
S11302700BBE0F900FBE0F901F9018951F920F92F8
S11302800FB60F9211240BB60F928F939F93EF9397
S1130290FF939091040280910302981769F0E09112
S11302A00302EF5FEF71E0930302F0E0EB5DFD4FBB
S11302B080818093CE0005C0E9ECF0E080818F7DE1
S11302C08083FF91EF919F918F910F900BBE0F90C0
S10F02D00FBE0F901F901895F894FFCFFC
S9030000FC
